{
  "transactions": [
    {
      "hash": "0x6e00a4a89641a66e475c9604586c848fe501ba5b733103545b4dcf3da1ad5bf7",
      "transactionType": "CALL",
      "contractName": null,
      "contractAddress": "0x2f869465e406392f65ffd23ed4bb20437ca829a2",
      "function": "mintNft(string)",
      "arguments": [
        "\"ipfs://bafybeig37ioir76s7mg5oobetncojcm3c3hxasyd4rvid4jqhy4gkaheg4/?filename=0-PUG.json\""
      ],
      "transaction": {
        "from": "0xf6a20a9f06f1739f83dfc35e36d2ba882e45fa3d",
        "to": "0x2f869465e406392f65ffd23ed4bb20437ca829a2",
        "gas": "0x40fd9",
        "value": "0x0",
        "input": "0xda86f4a900000000000000000000000000000000000000000000000000000000000000200000000000000000000000000000000000000000000000000000000000000057697066733a2f2f62616679626569673337696f6972373673376d67356f6f6265746e636f6a636d3363336878617379643472766964346a71687934676b61686567342f3f66696c656e616d653d302d5055472e6a736f6e000000000000000000",
        "nonce": "0x1f",
        "chainId": "0xaa36a7"
      },
      "additionalContracts": [],
      "isFixedGasLimit": false
    }
  ],
  "receipts": [
    {
      "status": "0x1",
      "cumulativeGasUsed": "0x13d12e7",
      "logs": [
        {
          "address": "0x2f869465e406392f65ffd23ed4bb20437ca829a2",
          "topics": [
            "0xddf252ad1be2c89b69c2b068fc378daa952ba7f163c4a11628f55a4df523b3ef",
            "0x0000000000000000000000000000000000000000000000000000000000000000",
            "0x000000000000000000000000f6a20a9f06f1739f83dfc35e36d2ba882e45fa3d",
            "0x0000000000000000000000000000000000000000000000000000000000000000"
          ],
          "data": "0x",
          "blockHash": "0x6d78b9c3dd69f5fc54196362c8194a1506c441c37c2c60c61400159178edc362",
          "blockNumber": "0x5d7614",
          "transactionHash": "0x6e00a4a89641a66e475c9604586c848fe501ba5b733103545b4dcf3da1ad5bf7",
          "transactionIndex": "0x47",
          "logIndex": "0xaa",
          "removed": false
        }
      ],
      "logsBloom": "0x00000000000000000000000000000000000000000000000000000000000000000000000000000000000000000000000000000000000000000000000000200000000000000000000000000008000000000000000000000000000000000000000000000000020000000000000000000800000000000000000000000010000000000100000000000000000000000000000000000000000000000000000000000000000000000000000000000400000000000000000080000000000000018000000000000002000000000000000000000000000000000000000000000000000020000000000000000000000000000000000000000000000000000000000000000000",
      "type": "0x2",
      "transactionHash": "0x6e00a4a89641a66e475c9604586c848fe501ba5b733103545b4dcf3da1ad5bf7",
      "transactionIndex": "0x47",
      "blockHash": "0x6d78b9c3dd69f5fc54196362c8194a1506c441c37c2c60c61400159178edc362",
      "blockNumber": "0x5d7614",
      "gasUsed": "0x2c702",
      "effectiveGasPrice": "0x81b724ea",
      "from": "0xf6a20a9f06f1739f83dfc35e36d2ba882e45fa3d",
      "to": "0x2f869465e406392f65ffd23ed4bb20437ca829a2",
      "contractAddress": null
    }
  ],
  "libraries": [],
  "pending": [],
  "returns": {},
  "timestamp": 1718606593,
  "chain": 11155111,
  "commit": "b2f6362"
}